{
  "contractName": "TimelessNFT",
  "abi": [
    {
      "inputs": [
        {
          "internalType": "string",
          "name": "_name",
          "type": "string"
        },
        {
          "internalType": "string",
          "name": "_symbol",
          "type": "string"
        },
        {
          "internalType": "uint256",
          "name": "_royaltyFee",
          "type": "uint256"
        },
        {
          "internalType": "address",
          "name": "_artist",
          "type": "address"
        }
      ],
      "stateMutability": "nonpayable",
      "type": "constructor"
    },
    {
      "anonymous": false,
      "inputs": [
        {
          "indexed": true,
          "internalType": "address",
          "name": "owner",
          "type": "address"
        },
        {
          "indexed": true,
          "internalType": "address",
          "name": "approved",
          "type": "address"
        },
        {
          "indexed": true,
          "internalType": "uint256",
          "name": "tokenId",
          "type": "uint256"
        }
      ],
      "name": "Approval",
      "type": "event"
    },
    {
      "anonymous": false,
      "inputs": [
        {
          "indexed": true,
          "internalType": "address",
          "name": "owner",
          "type": "address"
        },
        {
          "indexed": true,
          "internalType": "address",
          "name": "operator",
          "type": "address"
        },
        {
          "indexed": false,
          "internalType": "bool",
          "name": "approved",
          "type": "bool"
        }
      ],
      "name": "ApprovalForAll",
      "type": "event"
    },
    {
      "anonymous": false,
      "inputs": [
        {
          "indexed": true,
          "internalType": "address",
          "name": "previousOwner",
          "type": "address"
        },
        {
          "indexed": true,
          "internalType": "address",
          "name": "newOwner",
          "type": "address"
        }
      ],
      "name": "OwnershipTransferred",
      "type": "event"
    },
    {
      "anonymous": false,
      "inputs": [
        {
          "indexed": false,
          "internalType": "uint256",
          "name": "id",
          "type": "uint256"
        },
        {
          "indexed": true,
          "internalType": "address",
          "name": "owner",
          "type": "address"
        },
        {
          "indexed": false,
          "internalType": "uint256",
          "name": "cost",
          "type": "uint256"
        },
        {
          "indexed": false,
          "internalType": "string",
          "name": "metadataURI",
          "type": "string"
        },
        {
          "indexed": false,
          "internalType": "uint256",
          "name": "timestamp",
          "type": "uint256"
        }
      ],
      "name": "Sale",
      "type": "event"
    },
    {
      "anonymous": false,
      "inputs": [
        {
          "indexed": true,
          "internalType": "address",
          "name": "from",
          "type": "address"
        },
        {
          "indexed": true,
          "internalType": "address",
          "name": "to",
          "type": "address"
        },
        {
          "indexed": true,
          "internalType": "uint256",
          "name": "tokenId",
          "type": "uint256"
        }
      ],
      "name": "Transfer",
      "type": "event"
    },
    {
      "inputs": [
        {
          "internalType": "address",
          "name": "to",
          "type": "address"
        },
        {
          "internalType": "uint256",
          "name": "tokenId",
          "type": "uint256"
        }
      ],
      "name": "approve",
      "outputs": [],
      "stateMutability": "nonpayable",
      "type": "function"
    },
    {
      "inputs": [],
      "name": "artist",
      "outputs": [
        {
          "internalType": "address",
          "name": "",
          "type": "address"
        }
      ],
      "stateMutability": "view",
      "type": "function"
    },
    {
      "inputs": [
        {
          "internalType": "address",
          "name": "owner",
          "type": "address"
        }
      ],
      "name": "balanceOf",
      "outputs": [
        {
          "internalType": "uint256",
          "name": "",
          "type": "uint256"
        }
      ],
      "stateMutability": "view",
      "type": "function"
    },
    {
      "inputs": [],
      "name": "cost",
      "outputs": [
        {
          "internalType": "uint256",
          "name": "",
          "type": "uint256"
        }
      ],
      "stateMutability": "view",
      "type": "function"
    },
    {
      "inputs": [
        {
          "internalType": "uint256",
          "name": "tokenId",
          "type": "uint256"
        }
      ],
      "name": "getApproved",
      "outputs": [
        {
          "internalType": "address",
          "name": "",
          "type": "address"
        }
      ],
      "stateMutability": "view",
      "type": "function"
    },
    {
      "inputs": [
        {
          "internalType": "uint256",
          "name": "",
          "type": "uint256"
        }
      ],
      "name": "holderOf",
      "outputs": [
        {
          "internalType": "address",
          "name": "",
          "type": "address"
        }
      ],
      "stateMutability": "view",
      "type": "function"
    },
    {
      "inputs": [
        {
          "internalType": "address",
          "name": "owner",
          "type": "address"
        },
        {
          "internalType": "address",
          "name": "operator",
          "type": "address"
        }
      ],
      "name": "isApprovedForAll",
      "outputs": [
        {
          "internalType": "bool",
          "name": "",
          "type": "bool"
        }
      ],
      "stateMutability": "view",
      "type": "function"
    },
    {
      "inputs": [],
      "name": "name",
      "outputs": [
        {
          "internalType": "string",
          "name": "",
          "type": "string"
        }
      ],
      "stateMutability": "view",
      "type": "function"
    },
    {
      "inputs": [],
      "name": "owner",
      "outputs": [
        {
          "internalType": "address",
          "name": "",
          "type": "address"
        }
      ],
      "stateMutability": "view",
      "type": "function"
    },
    {
      "inputs": [
        {
          "internalType": "uint256",
          "name": "tokenId",
          "type": "uint256"
        }
      ],
      "name": "ownerOf",
      "outputs": [
        {
          "internalType": "address",
          "name": "",
          "type": "address"
        }
      ],
      "stateMutability": "view",
      "type": "function"
    },
    {
      "inputs": [],
      "name": "renounceOwnership",
      "outputs": [],
      "stateMutability": "nonpayable",
      "type": "function"
    },
    {
      "inputs": [],
      "name": "royaltyFee",
      "outputs": [
        {
          "internalType": "uint256",
          "name": "",
          "type": "uint256"
        }
      ],
      "stateMutability": "view",
      "type": "function"
    },
    {
      "inputs": [
        {
          "internalType": "address",
          "name": "from",
          "type": "address"
        },
        {
          "internalType": "address",
          "name": "to",
          "type": "address"
        },
        {
          "internalType": "uint256",
          "name": "tokenId",
          "type": "uint256"
        }
      ],
      "name": "safeTransferFrom",
      "outputs": [],
      "stateMutability": "payable",
      "type": "function"
    },
    {
      "inputs": [
        {
          "internalType": "address",
          "name": "from",
          "type": "address"
        },
        {
          "internalType": "address",
          "name": "to",
          "type": "address"
        },
        {
          "internalType": "uint256",
          "name": "tokenId",
          "type": "uint256"
        },
        {
          "internalType": "bytes",
          "name": "_data",
          "type": "bytes"
        }
      ],
      "name": "safeTransferFrom",
      "outputs": [],
      "stateMutability": "payable",
      "type": "function"
    },
    {
      "inputs": [
        {
          "internalType": "address",
          "name": "operator",
          "type": "address"
        },
        {
          "internalType": "bool",
          "name": "approved",
          "type": "bool"
        }
      ],
      "name": "setApprovalForAll",
      "outputs": [],
      "stateMutability": "nonpayable",
      "type": "function"
    },
    {
      "inputs": [],
      "name": "supply",
      "outputs": [
        {
          "internalType": "uint256",
          "name": "",
          "type": "uint256"
        }
      ],
      "stateMutability": "view",
      "type": "function"
    },
    {
      "inputs": [
        {
          "internalType": "bytes4",
          "name": "interfaceId",
          "type": "bytes4"
        }
      ],
      "name": "supportsInterface",
      "outputs": [
        {
          "internalType": "bool",
          "name": "",
          "type": "bool"
        }
      ],
      "stateMutability": "view",
      "type": "function"
    },
    {
      "inputs": [],
      "name": "symbol",
      "outputs": [
        {
          "internalType": "string",
          "name": "",
          "type": "string"
        }
      ],
      "stateMutability": "view",
      "type": "function"
    },
    {
      "inputs": [
        {
          "internalType": "uint256",
          "name": "index",
          "type": "uint256"
        }
      ],
      "name": "tokenByIndex",
      "outputs": [
        {
          "internalType": "uint256",
          "name": "",
          "type": "uint256"
        }
      ],
      "stateMutability": "view",
      "type": "function"
    },
    {
      "inputs": [
        {
          "internalType": "address",
          "name": "owner",
          "type": "address"
        },
        {
          "internalType": "uint256",
          "name": "index",
          "type": "uint256"
        }
      ],
      "name": "tokenOfOwnerByIndex",
      "outputs": [
        {
          "internalType": "uint256",
          "name": "",
          "type": "uint256"
        }
      ],
      "stateMutability": "view",
      "type": "function"
    },
    {
      "inputs": [
        {
          "internalType": "uint256",
          "name": "tokenId",
          "type": "uint256"
        }
      ],
      "name": "tokenURI",
      "outputs": [
        {
          "internalType": "string",
          "name": "",
          "type": "string"
        }
      ],
      "stateMutability": "view",
      "type": "function"
    },
    {
      "inputs": [],
      "name": "totalSupply",
      "outputs": [
        {
          "internalType": "uint256",
          "name": "",
          "type": "uint256"
        }
      ],
      "stateMutability": "view",
      "type": "function"
    },
    {
      "inputs": [],
      "name": "totalTx",
      "outputs": [
        {
          "internalType": "uint256",
          "name": "",
          "type": "uint256"
        }
      ],
      "stateMutability": "view",
      "type": "function"
    },
    {
      "inputs": [
        {
          "internalType": "address",
          "name": "from",
          "type": "address"
        },
        {
          "internalType": "address",
          "name": "to",
          "type": "address"
        },
        {
          "internalType": "uint256",
          "name": "tokenId",
          "type": "uint256"
        }
      ],
      "name": "transferFrom",
      "outputs": [],
      "stateMutability": "payable",
      "type": "function"
    },
    {
      "inputs": [
        {
          "internalType": "address",
          "name": "newOwner",
          "type": "address"
        }
      ],
      "name": "transferOwnership",
      "outputs": [],
      "stateMutability": "nonpayable",
      "type": "function"
    },
    {
      "inputs": [
        {
          "internalType": "string",
          "name": "title",
          "type": "string"
        },
        {
          "internalType": "string",
          "name": "description",
          "type": "string"
        },
        {
          "internalType": "string",
          "name": "metadataURI",
          "type": "string"
        },
        {
          "internalType": "uint256",
          "name": "salesPrice",
          "type": "uint256"
        }
      ],
      "name": "payToMint",
      "outputs": [],
      "stateMutability": "payable",
      "type": "function"
    },
    {
      "inputs": [
        {
          "internalType": "uint256",
          "name": "id",
          "type": "uint256"
        }
      ],
      "name": "payToBuy",
      "outputs": [],
      "stateMutability": "payable",
      "type": "function"
    },
    {
      "inputs": [
        {
          "internalType": "uint256",
          "name": "id",
          "type": "uint256"
        },
        {
          "internalType": "uint256",
          "name": "newPrice",
          "type": "uint256"
        }
      ],
      "name": "changePrice",
      "outputs": [
        {
          "internalType": "bool",
          "name": "",
          "type": "bool"
        }
      ],
      "stateMutability": "nonpayable",
      "type": "function"
    },
    {
      "inputs": [],
      "name": "getAllNFTs",
      "outputs": [
        {
          "components": [
            {
              "internalType": "uint256",
              "name": "id",
              "type": "uint256"
            },
            {
              "internalType": "address",
              "name": "owner",
              "type": "address"
            },
            {
              "internalType": "uint256",
              "name": "cost",
              "type": "uint256"
            },
            {
              "internalType": "string",
              "name": "title",
              "type": "string"
            },
            {
              "internalType": "string",
              "name": "description",
              "type": "string"
            },
            {
              "internalType": "string",
              "name": "metadataURI",
              "type": "string"
            },
            {
              "internalType": "uint256",
              "name": "timestamp",
              "type": "uint256"
            }
          ],
          "internalType": "struct TimelessNFT.TransactionStruct[]",
          "name": "",
          "type": "tuple[]"
        }
      ],
      "stateMutability": "view",
      "type": "function"
    },
    {
      "inputs": [
        {
          "internalType": "uint256",
          "name": "id",
          "type": "uint256"
        }
      ],
      "name": "getNFT",
      "outputs": [
        {
          "components": [
            {
              "internalType": "uint256",
              "name": "id",
              "type": "uint256"
            },
            {
              "internalType": "address",
              "name": "owner",
              "type": "address"
            },
            {
              "internalType": "uint256",
              "name": "cost",
              "type": "uint256"
            },
            {
              "internalType": "string",
              "name": "title",
              "type": "string"
            },
            {
              "internalType": "string",
              "name": "description",
              "type": "string"
            },
            {
              "internalType": "string",
              "name": "metadataURI",
              "type": "string"
            },
            {
              "internalType": "uint256",
              "name": "timestamp",
              "type": "uint256"
            }
          ],
          "internalType": "struct TimelessNFT.TransactionStruct",
          "name": "",
          "type": "tuple"
        }
      ],
      "stateMutability": "view",
      "type": "function"
    },
    {
      "inputs": [],
      "name": "getAllTransactions",
      "outputs": [
        {
          "components": [
            {
              "internalType": "uint256",
              "name": "id",
              "type": "uint256"
            },
            {
              "internalType": "address",
              "name": "owner",
              "type": "address"
            },
            {
              "internalType": "uint256",
              "name": "cost",
              "type": "uint256"
            },
            {
              "internalType": "string",
              "name": "title",
              "type": "string"
            },
            {
              "internalType": "string",
              "name": "description",
              "type": "string"
            },
            {
              "internalType": "string",
              "name": "metadataURI",
              "type": "string"
            },
            {
              "internalType": "uint256",
              "name": "timestamp",
              "type": "uint256"
            }
          ],
          "internalType": "struct TimelessNFT.TransactionStruct[]",
          "name": "",
          "type": "tuple[]"
        }
      ],
      "stateMutability": "view",
      "type": "function"
    }
  ],
  "bytecode": "0x60806040526000600f556000601055662386f26fc100006011553480156200002657600080fd5b50604051620058d9380380620058d983398181016040528101906200004c9190620004af565b8383816000908051906020019062000066929190620001c2565b5080600190805190602001906200007f929190620001c2565b505050620000a262000096620000f460201b60201c565b620000fc60201b60201c565b81600e8190555080600d60006101000a81548173ffffffffffffffffffffffffffffffffffffffff021916908373ffffffffffffffffffffffffffffffffffffffff16021790555050505050620005c4565b600033905090565b6000600a60009054906101000a900473ffffffffffffffffffffffffffffffffffffffff16905081600a60006101000a81548173ffffffffffffffffffffffffffffffffffffffff021916908373ffffffffffffffffffffffffffffffffffffffff1602179055508173ffffffffffffffffffffffffffffffffffffffff168173ffffffffffffffffffffffffffffffffffffffff167f8be0079c531659141344cd1fd0a4f28419497f9722a3daafe3b4186f6b6457e060405160405180910390a35050565b828054620001d0906200058e565b90600052602060002090601f016020900481019282620001f4576000855562000240565b82601f106200020f57805160ff191683800117855562000240565b8280016001018555821562000240579182015b828111156200023f57825182559160200191906001019062000222565b5b5090506200024f919062000253565b5090565b5b808211156200026e57600081600090555060010162000254565b5090565b6000604051905090565b600080fd5b600080fd5b600080fd5b600080fd5b6000601f19601f8301169050919050565b7f4e487b7100000000000000000000000000000000000000000000000000000000600052604160045260246000fd5b620002db8262000290565b810181811067ffffffffffffffff82111715620002fd57620002fc620002a1565b5b80604052505050565b60006200031262000272565b9050620003208282620002d0565b919050565b600067ffffffffffffffff821115620003435762000342620002a1565b5b6200034e8262000290565b9050602081019050919050565b60005b838110156200037b5780820151818401526020810190506200035e565b838111156200038b576000848401525b50505050565b6000620003a8620003a28462000325565b62000306565b905082815260208101848484011115620003c757620003c66200028b565b5b620003d48482856200035b565b509392505050565b600082601f830112620003f457620003f362000286565b5b81516200040684826020860162000391565b91505092915050565b6000819050919050565b62000424816200040f565b81146200043057600080fd5b50565b600081519050620004448162000419565b92915050565b600073ffffffffffffffffffffffffffffffffffffffff82169050919050565b600062000477826200044a565b9050919050565b62000489816200046a565b81146200049557600080fd5b50565b600081519050620004a9816200047e565b92915050565b60008060008060808587031215620004cc57620004cb6200027c565b5b600085015167ffffffffffffffff811115620004ed57620004ec62000281565b5b620004fb87828801620003dc565b945050602085015167ffffffffffffffff8111156200051f576200051e62000281565b5b6200052d87828801620003dc565b9350506040620005408782880162000433565b9250506060620005538782880162000498565b91505092959194509250565b7f4e487b7100000000000000000000000000000000000000000000000000000000600052602260045260246000fd5b60006002820490506001821680620005a757607f821691505b60208210811415620005be57620005bd6200055f565b5b50919050565b61530580620005d46000396000f3fe6080604052600436106101d85760003560e01c806370a0823111610102578063b3de019c11610095578063dbacc23711610064578063dbacc237146106a5578063e0391b09146106e2578063e985e9c51461070d578063f2fde38b1461074a576101d8565b8063b3de019c146105e4578063b88d4fde14610621578063b8997a971461063d578063c87b56dd14610668576101d8565b80638da5cb5b116100d15780638da5cb5b1461054957806395d89b41146105745780639ba4b0171461059f578063a22cb465146105bb576101d8565b806370a08231146104ae578063715018a6146104eb5780637220cf3914610502578063799c0c1e1461052d576101d8565b806323b872dd1161017a57806343bc16121161014957806343bc1612146103cc5780634f6ccce7146103f7578063576f7ea7146104345780636352211e14610471576101d8565b806323b872dd1461032c57806327506f53146103485780632f745c591461037357806342842e0e146103b0576101d8565b8063081812fc116101b6578063081812fc14610270578063095ea7b3146102ad57806313faede6146102d657806318160ddd14610301576101d8565b806301ffc9a7146101dd578063047fc9aa1461021a57806306fdde0314610245575b600080fd5b3480156101e957600080fd5b5061020460048036038101906101ff919061380a565b610773565b6040516102119190613852565b60405180910390f35b34801561022657600080fd5b5061022f6107ed565b60405161023c9190613886565b60405180910390f35b34801561025157600080fd5b5061025a6107f3565b604051610267919061393a565b60405180910390f35b34801561027c57600080fd5b5061029760048036038101906102929190613988565b610885565b6040516102a491906139f6565b60405180910390f35b3480156102b957600080fd5b506102d460048036038101906102cf9190613a3d565b61090a565b005b3480156102e257600080fd5b506102eb610a22565b6040516102f89190613886565b60405180910390f35b34801561030d57600080fd5b50610316610a28565b6040516103239190613886565b60405180910390f35b61034660048036038101906103419190613a7d565b610a35565b005b34801561035457600080fd5b5061035d610a95565b60405161036a9190613ca4565b60405180910390f35b34801561037f57600080fd5b5061039a60048036038101906103959190613a3d565b610d1e565b6040516103a79190613886565b60405180910390f35b6103ca60048036038101906103c59190613a7d565b610dc3565b005b3480156103d857600080fd5b506103e1610de3565b6040516103ee91906139f6565b60405180910390f35b34801561040357600080fd5b5061041e60048036038101906104199190613988565b610e09565b60405161042b9190613886565b60405180910390f35b34801561044057600080fd5b5061045b60048036038101906104569190613988565b610e7a565b6040516104689190613d70565b60405180910390f35b34801561047d57600080fd5b5061049860048036038101906104939190613988565b6110ec565b6040516104a591906139f6565b60405180910390f35b3480156104ba57600080fd5b506104d560048036038101906104d09190613d92565b61119e565b6040516104e29190613886565b60405180910390f35b3480156104f757600080fd5b50610500611256565b005b34801561050e57600080fd5b5061051761126a565b6040516105249190613886565b60405180910390f35b61054760048036038101906105429190613ef4565b611270565b005b34801561055557600080fd5b5061055e6115cd565b60405161056b91906139f6565b60405180910390f35b34801561058057600080fd5b506105896115f7565b604051610596919061393a565b60405180910390f35b6105b960048036038101906105b49190613988565b611689565b005b3480156105c757600080fd5b506105e260048036038101906105dd9190613fdb565b611cde565b005b3480156105f057600080fd5b5061060b6004803603810190610606919061401b565b611cf4565b6040516106189190613852565b60405180910390f35b61063b600480360381019061063691906140fc565b611e37565b005b34801561064957600080fd5b50610652611e99565b60405161065f9190613886565b60405180910390f35b34801561067457600080fd5b5061068f600480360381019061068a9190613988565b611e9f565b60405161069c919061393a565b60405180910390f35b3480156106b157600080fd5b506106cc60048036038101906106c79190613988565b611f46565b6040516106d991906139f6565b60405180910390f35b3480156106ee57600080fd5b506106f7611f79565b6040516107049190613ca4565b60405180910390f35b34801561071957600080fd5b50610734600480360381019061072f919061417f565b612202565b6040516107419190613852565b60405180910390f35b34801561075657600080fd5b50610771600480360381019061076c9190613d92565b612296565b005b60007f780e9d63000000000000000000000000000000000000000000000000000000007bffffffffffffffffffffffffffffffffffffffffffffffffffffffff1916827bffffffffffffffffffffffffffffffffffffffffffffffffffffffff191614806107e657506107e58261231a565b5b9050919050565b600f5481565b606060008054610802906141ee565b80601f016020809104026020016040519081016040528092919081815260200182805461082e906141ee565b801561087b5780601f106108505761010080835404028352916020019161087b565b820191906000526020600020905b81548152906001019060200180831161085e57829003601f168201915b5050505050905090565b6000610890826123fc565b6108cf576040517f08c379a00000000000000000000000000000000000000000000000000000000081526004016108c690614292565b60405180910390fd5b6004600083815260200190815260200160002060009054906101000a900473ffffffffffffffffffffffffffffffffffffffff169050919050565b6000610915826110ec565b90508073ffffffffffffffffffffffffffffffffffffffff168373ffffffffffffffffffffffffffffffffffffffff161415610986576040517f08c379a000000000000000000000000000000000000000000000000000000000815260040161097d90614324565b60405180910390fd5b8073ffffffffffffffffffffffffffffffffffffffff166109a5612468565b73ffffffffffffffffffffffffffffffffffffffff1614806109d457506109d3816109ce612468565b612202565b5b610a13576040517f08c379a0000000000000000000000000000000000000000000000000000000008152600401610a0a906143b6565b60405180910390fd5b610a1d8383612470565b505050565b60115481565b6000600880549050905090565b610a46610a40612468565b82612529565b610a85576040517f08c379a0000000000000000000000000000000000000000000000000000000008152600401610a7c90614448565b60405180910390fd5b610a90838383612607565b505050565b60606012805480602002602001604051908101604052809291908181526020016000905b82821015610d1557838290600052602060002090600702016040518060e0016040529081600082015481526020016001820160009054906101000a900473ffffffffffffffffffffffffffffffffffffffff1673ffffffffffffffffffffffffffffffffffffffff1673ffffffffffffffffffffffffffffffffffffffff16815260200160028201548152602001600382018054610b56906141ee565b80601f0160208091040260200160405190810160405280929190818152602001828054610b82906141ee565b8015610bcf5780601f10610ba457610100808354040283529160200191610bcf565b820191906000526020600020905b815481529060010190602001808311610bb257829003601f168201915b50505050508152602001600482018054610be8906141ee565b80601f0160208091040260200160405190810160405280929190818152602001828054610c14906141ee565b8015610c615780601f10610c3657610100808354040283529160200191610c61565b820191906000526020600020905b815481529060010190602001808311610c4457829003601f168201915b50505050508152602001600582018054610c7a906141ee565b80601f0160208091040260200160405190810160405280929190818152602001828054610ca6906141ee565b8015610cf35780601f10610cc857610100808354040283529160200191610cf3565b820191906000526020600020905b815481529060010190602001808311610cd657829003601f168201915b5050505050815260200160068201548152505081526020019060010190610ab9565b50505050905090565b6000610d298361119e565b8210610d6a576040517f08c379a0000000000000000000000000000000000000000000000000000000008152600401610d61906144da565b60405180910390fd5b600660008473ffffffffffffffffffffffffffffffffffffffff1673ffffffffffffffffffffffffffffffffffffffff168152602001908152602001600020600083815260200190815260200160002054905092915050565b610dde83838360405180602001604052806000815250611e37565b505050565b600d60009054906101000a900473ffffffffffffffffffffffffffffffffffffffff1681565b6000610e13610a28565b8210610e54576040517f08c379a0000000000000000000000000000000000000000000000000000000008152600401610e4b9061456c565b60405180910390fd5b60088281548110610e6857610e6761458c565b5b90600052602060002001549050919050565b610e826136a8565b6013600183610e9191906145ea565b81548110610ea257610ea161458c565b5b90600052602060002090600702016040518060e0016040529081600082015481526020016001820160009054906101000a900473ffffffffffffffffffffffffffffffffffffffff1673ffffffffffffffffffffffffffffffffffffffff1673ffffffffffffffffffffffffffffffffffffffff16815260200160028201548152602001600382018054610f35906141ee565b80601f0160208091040260200160405190810160405280929190818152602001828054610f61906141ee565b8015610fae5780601f10610f8357610100808354040283529160200191610fae565b820191906000526020600020905b815481529060010190602001808311610f9157829003601f168201915b50505050508152602001600482018054610fc7906141ee565b80601f0160208091040260200160405190810160405280929190818152602001828054610ff3906141ee565b80156110405780601f1061101557610100808354040283529160200191611040565b820191906000526020600020905b81548152906001019060200180831161102357829003601f168201915b50505050508152602001600582018054611059906141ee565b80601f0160208091040260200160405190810160405280929190818152602001828054611085906141ee565b80156110d25780601f106110a7576101008083540402835291602001916110d2565b820191906000526020600020905b8154815290600101906020018083116110b557829003601f168201915b505050505081526020016006820154815250509050919050565b6000806002600084815260200190815260200160002060009054906101000a900473ffffffffffffffffffffffffffffffffffffffff169050600073ffffffffffffffffffffffffffffffffffffffff168173ffffffffffffffffffffffffffffffffffffffff161415611195576040517f08c379a000000000000000000000000000000000000000000000000000000000815260040161118c90614690565b60405180910390fd5b80915050919050565b60008073ffffffffffffffffffffffffffffffffffffffff168273ffffffffffffffffffffffffffffffffffffffff16141561120f576040517f08c379a000000000000000000000000000000000000000000000000000000000815260040161120690614722565b60405180910390fd5b600360008373ffffffffffffffffffffffffffffffffffffffff1673ffffffffffffffffffffffffffffffffffffffff168152602001908152602001600020549050919050565b61125e612863565b61126860006128e1565b565b60105481565b6011543410156112b5576040517f08c379a00000000000000000000000000000000000000000000000000000000081526004016112ac9061478e565b60405180910390fd5b6000600b836040516112c791906147ea565b908152602001604051809103902060009054906101000a900460ff1660ff1614611326576040517f08c379a000000000000000000000000000000000000000000000000000000000815260040161131d9061484d565b60405180910390fd5b60006064600e5434611338919061486d565b61134291906148f6565b9050611370600d60009054906101000a900473ffffffffffffffffffffffffffffffffffffffff16826129a7565b61138c61137b6115cd565b823461138791906145ea565b6129a7565b600f600081548092919061139f90614927565b919050555060136040518060e00160405280600f5481526020013373ffffffffffffffffffffffffffffffffffffffff1681526020018481526020018781526020018681526020018581526020014281525090806001815401808255809150506001900390600052602060002090600702016000909190919091506000820151816000015560208201518160010160006101000a81548173ffffffffffffffffffffffffffffffffffffffff021916908373ffffffffffffffffffffffffffffffffffffffff1602179055506040820151816002015560608201518160030190805190602001906114919291906136fb565b5060808201518160040190805190602001906114ae9291906136fb565b5060a08201518160050190805190602001906114cb9291906136fb565b5060c0820151816006015550503373ffffffffffffffffffffffffffffffffffffffff167fb9508407a6eccb191d8da3286f4173697cf95604e9ea192fe5ab7c862b5221f6600f543486426040516115269493929190614970565b60405180910390a261153a33600f54612a22565b6001600b8460405161154c91906147ea565b908152602001604051809103902060006101000a81548160ff021916908360ff16021790555033600c6000600f54815260200190815260200160002060006101000a81548173ffffffffffffffffffffffffffffffffffffffff021916908373ffffffffffffffffffffffffffffffffffffffff1602179055505050505050565b6000600a60009054906101000a900473ffffffffffffffffffffffffffffffffffffffff16905090565b606060018054611606906141ee565b80601f0160208091040260200160405190810160405280929190818152602001828054611632906141ee565b801561167f5780601f106116545761010080835404028352916020019161167f565b820191906000526020600020905b81548152906001019060200180831161166257829003601f168201915b5050505050905090565b601360018261169891906145ea565b815481106116a9576116a861458c565b5b9060005260206000209060070201600201543410156116fd576040517f08c379a00000000000000000000000000000000000000000000000000000000081526004016116f490614a08565b60405180910390fd5b601360018261170c91906145ea565b8154811061171d5761171c61458c565b5b906000526020600020906007020160010160009054906101000a900473ffffffffffffffffffffffffffffffffffffffff1673ffffffffffffffffffffffffffffffffffffffff163373ffffffffffffffffffffffffffffffffffffffff1614156117bd576040517f08c379a00000000000000000000000000000000000000000000000000000000081526004016117b490614a74565b60405180910390fd5b60006064600e54346117cf919061486d565b6117d991906148f6565b9050611807600d60009054906101000a900473ffffffffffffffffffffffffffffffffffffffff16826129a7565b61186d601360018461181991906145ea565b8154811061182a5761182961458c565b5b906000526020600020906007020160010160009054906101000a900473ffffffffffffffffffffffffffffffffffffffff16823461186891906145ea565b6129a7565b6010600081548092919061188090614927565b919050555060126040518060e0016040528060105481526020013373ffffffffffffffffffffffffffffffffffffffff16815260200134815260200160136001866118cb91906145ea565b815481106118dc576118db61458c565b5b906000526020600020906007020160030180546118f8906141ee565b80601f0160208091040260200160405190810160405280929190818152602001828054611924906141ee565b80156119715780601f1061194657610100808354040283529160200191611971565b820191906000526020600020905b81548152906001019060200180831161195457829003601f168201915b50505050508152602001601360018661198a91906145ea565b8154811061199b5761199a61458c565b5b906000526020600020906007020160040180546119b7906141ee565b80601f01602080910402602001604051908101604052809291908181526020018280546119e3906141ee565b8015611a305780601f10611a0557610100808354040283529160200191611a30565b820191906000526020600020905b815481529060010190602001808311611a1357829003601f168201915b505050505081526020016013600186611a4991906145ea565b81548110611a5a57611a5961458c565b5b90600052602060002090600702016005018054611a76906141ee565b80601f0160208091040260200160405190810160405280929190818152602001828054611aa2906141ee565b8015611aef5780601f10611ac457610100808354040283529160200191611aef565b820191906000526020600020905b815481529060010190602001808311611ad257829003601f168201915b505050505081526020014281525090806001815401808255809150506001900390600052602060002090600702016000909190919091506000820151816000015560208201518160010160006101000a81548173ffffffffffffffffffffffffffffffffffffffff021916908373ffffffffffffffffffffffffffffffffffffffff160217905550604082015181600201556060820151816003019080519060200190611b9d9291906136fb565b506080820151816004019080519060200190611bba9291906136fb565b5060a0820151816005019080519060200190611bd79291906136fb565b5060c0820151816006015550503373ffffffffffffffffffffffffffffffffffffffff167fb9508407a6eccb191d8da3286f4173697cf95604e9ea192fe5ab7c862b5221f6601054346013600187611c2f91906145ea565b81548110611c4057611c3f61458c565b5b906000526020600020906007020160050142604051611c629493929190614b29565b60405180910390a2336013600184611c7a91906145ea565b81548110611c8b57611c8a61458c565b5b906000526020600020906007020160010160006101000a81548173ffffffffffffffffffffffffffffffffffffffff021916908373ffffffffffffffffffffffffffffffffffffffff1602179055505050565b611cf0611ce9612468565b8383612a40565b5050565b6000808211611d38576040517f08c379a0000000000000000000000000000000000000000000000000000000008152600401611d2f90614bc1565b60405180910390fd5b6013600184611d4791906145ea565b81548110611d5857611d5761458c565b5b906000526020600020906007020160010160009054906101000a900473ffffffffffffffffffffffffffffffffffffffff1673ffffffffffffffffffffffffffffffffffffffff163373ffffffffffffffffffffffffffffffffffffffff1614611df7576040517f08c379a0000000000000000000000000000000000000000000000000000000008152600401611dee90614a74565b60405180910390fd5b816013600185611e0791906145ea565b81548110611e1857611e1761458c565b5b9060005260206000209060070201600201819055506001905092915050565b611e48611e42612468565b83612529565b611e87576040517f08c379a0000000000000000000000000000000000000000000000000000000008152600401611e7e90614448565b60405180910390fd5b611e9384848484612bad565b50505050565b600e5481565b6060611eaa826123fc565b611ee9576040517f08c379a0000000000000000000000000000000000000000000000000000000008152600401611ee090614c53565b60405180910390fd5b6000611ef3612c09565b90506000815111611f135760405180602001604052806000815250611f3e565b80611f1d84612c20565b604051602001611f2e929190614c73565b6040516020818303038152906040525b915050919050565b600c6020528060005260406000206000915054906101000a900473ffffffffffffffffffffffffffffffffffffffff1681565b60606013805480602002602001604051908101604052809291908181526020016000905b828210156121f957838290600052602060002090600702016040518060e0016040529081600082015481526020016001820160009054906101000a900473ffffffffffffffffffffffffffffffffffffffff1673ffffffffffffffffffffffffffffffffffffffff1673ffffffffffffffffffffffffffffffffffffffff1681526020016002820154815260200160038201805461203a906141ee565b80601f0160208091040260200160405190810160405280929190818152602001828054612066906141ee565b80156120b35780601f10612088576101008083540402835291602001916120b3565b820191906000526020600020905b81548152906001019060200180831161209657829003601f168201915b505050505081526020016004820180546120cc906141ee565b80601f01602080910402602001604051908101604052809291908181526020018280546120f8906141ee565b80156121455780601f1061211a57610100808354040283529160200191612145565b820191906000526020600020905b81548152906001019060200180831161212857829003601f168201915b5050505050815260200160058201805461215e906141ee565b80601f016020809104026020016040519081016040528092919081815260200182805461218a906141ee565b80156121d75780601f106121ac576101008083540402835291602001916121d7565b820191906000526020600020905b8154815290600101906020018083116121ba57829003601f168201915b5050505050815260200160068201548152505081526020019060010190611f9d565b50505050905090565b6000600560008473ffffffffffffffffffffffffffffffffffffffff1673ffffffffffffffffffffffffffffffffffffffff16815260200190815260200160002060008373ffffffffffffffffffffffffffffffffffffffff1673ffffffffffffffffffffffffffffffffffffffff16815260200190815260200160002060009054906101000a900460ff16905092915050565b61229e612863565b600073ffffffffffffffffffffffffffffffffffffffff168173ffffffffffffffffffffffffffffffffffffffff16141561230e576040517f08c379a000000000000000000000000000000000000000000000000000000000815260040161230590614d09565b60405180910390fd5b612317816128e1565b50565b60007f80ac58cd000000000000000000000000000000000000000000000000000000007bffffffffffffffffffffffffffffffffffffffffffffffffffffffff1916827bffffffffffffffffffffffffffffffffffffffffffffffffffffffff191614806123e557507f5b5e139f000000000000000000000000000000000000000000000000000000007bffffffffffffffffffffffffffffffffffffffffffffffffffffffff1916827bffffffffffffffffffffffffffffffffffffffffffffffffffffffff1916145b806123f557506123f482612cf8565b5b9050919050565b60008073ffffffffffffffffffffffffffffffffffffffff166002600084815260200190815260200160002060009054906101000a900473ffffffffffffffffffffffffffffffffffffffff1673ffffffffffffffffffffffffffffffffffffffff1614159050919050565b600033905090565b816004600083815260200190815260200160002060006101000a81548173ffffffffffffffffffffffffffffffffffffffff021916908373ffffffffffffffffffffffffffffffffffffffff160217905550808273ffffffffffffffffffffffffffffffffffffffff166124e3836110ec565b73ffffffffffffffffffffffffffffffffffffffff167f8c5be1e5ebec7d5bd14f71427d1e84f3dd0314c0f7b2291e5b200ac8c7c3b92560405160405180910390a45050565b6000612534826123fc565b612573576040517f08c379a000000000000000000000000000000000000000000000000000000000815260040161256a90614d9b565b60405180910390fd5b600061257e836110ec565b90508073ffffffffffffffffffffffffffffffffffffffff168473ffffffffffffffffffffffffffffffffffffffff1614806125ed57508373ffffffffffffffffffffffffffffffffffffffff166125d584610885565b73ffffffffffffffffffffffffffffffffffffffff16145b806125fe57506125fd8185612202565b5b91505092915050565b8273ffffffffffffffffffffffffffffffffffffffff16612627826110ec565b73ffffffffffffffffffffffffffffffffffffffff161461267d576040517f08c379a000000000000000000000000000000000000000000000000000000000815260040161267490614e2d565b60405180910390fd5b600073ffffffffffffffffffffffffffffffffffffffff168273ffffffffffffffffffffffffffffffffffffffff1614156126ed576040517f08c379a00000000000000000000000000000000000000000000000000000000081526004016126e490614ebf565b60405180910390fd5b6126f8838383612d62565b612703600082612470565b6001600360008573ffffffffffffffffffffffffffffffffffffffff1673ffffffffffffffffffffffffffffffffffffffff168152602001908152602001600020600082825461275391906145ea565b925050819055506001600360008473ffffffffffffffffffffffffffffffffffffffff1673ffffffffffffffffffffffffffffffffffffffff16815260200190815260200160002060008282546127aa9190614edf565b92505081905550816002600083815260200190815260200160002060006101000a81548173ffffffffffffffffffffffffffffffffffffffff021916908373ffffffffffffffffffffffffffffffffffffffff160217905550808273ffffffffffffffffffffffffffffffffffffffff168473ffffffffffffffffffffffffffffffffffffffff167fddf252ad1be2c89b69c2b068fc378daa952ba7f163c4a11628f55a4df523b3ef60405160405180910390a4505050565b61286b612468565b73ffffffffffffffffffffffffffffffffffffffff166128896115cd565b73ffffffffffffffffffffffffffffffffffffffff16146128df576040517f08c379a00000000000000000000000000000000000000000000000000000000081526004016128d690614f81565b60405180910390fd5b565b6000600a60009054906101000a900473ffffffffffffffffffffffffffffffffffffffff16905081600a60006101000a81548173ffffffffffffffffffffffffffffffffffffffff021916908373ffffffffffffffffffffffffffffffffffffffff1602179055508173ffffffffffffffffffffffffffffffffffffffff168173ffffffffffffffffffffffffffffffffffffffff167f8be0079c531659141344cd1fd0a4f28419497f9722a3daafe3b4186f6b6457e060405160405180910390a35050565b60008273ffffffffffffffffffffffffffffffffffffffff16826040516129cd90614fd2565b60006040518083038185875af1925050503d8060008114612a0a576040519150601f19603f3d011682016040523d82523d6000602084013e612a0f565b606091505b5050905080612a1d57600080fd5b505050565b612a3c828260405180602001604052806000815250612e76565b5050565b8173ffffffffffffffffffffffffffffffffffffffff168373ffffffffffffffffffffffffffffffffffffffff161415612aaf576040517f08c379a0000000000000000000000000000000000000000000000000000000008152600401612aa690615033565b60405180910390fd5b80600560008573ffffffffffffffffffffffffffffffffffffffff1673ffffffffffffffffffffffffffffffffffffffff16815260200190815260200160002060008473ffffffffffffffffffffffffffffffffffffffff1673ffffffffffffffffffffffffffffffffffffffff16815260200190815260200160002060006101000a81548160ff0219169083151502179055508173ffffffffffffffffffffffffffffffffffffffff168373ffffffffffffffffffffffffffffffffffffffff167f17307eab39ab6107e8899845ad3d59bd9653f200f220920489ca2b5937696c3183604051612ba09190613852565b60405180910390a3505050565b612bb8848484612607565b612bc484848484612ed1565b612c03576040517f08c379a0000000000000000000000000000000000000000000000000000000008152600401612bfa906150c5565b60405180910390fd5b50505050565b606060405180602001604052806000815250905090565b606060006001612c2f84613059565b01905060008167ffffffffffffffff811115612c4e57612c4d613dc9565b5b6040519080825280601f01601f191660200182016040528015612c805781602001600182028036833780820191505090505b509050600082602001820190505b600115612ced578080600190039150507f3031323334353637383961626364656600000000000000000000000000000000600a86061a8153600a8581612cd757612cd66148c7565b5b0494506000851415612ce857612ced565b612c8e565b819350505050919050565b60007f01ffc9a7000000000000000000000000000000000000000000000000000000007bffffffffffffffffffffffffffffffffffffffffffffffffffffffff1916827bffffffffffffffffffffffffffffffffffffffffffffffffffffffff1916149050919050565b612d6d8383836131ac565b600073ffffffffffffffffffffffffffffffffffffffff168373ffffffffffffffffffffffffffffffffffffffff161415612db057612dab816131b1565b612def565b8173ffffffffffffffffffffffffffffffffffffffff168373ffffffffffffffffffffffffffffffffffffffff1614612dee57612ded83826131fa565b5b5b600073ffffffffffffffffffffffffffffffffffffffff168273ffffffffffffffffffffffffffffffffffffffff161415612e3257612e2d81613367565b612e71565b8273ffffffffffffffffffffffffffffffffffffffff168273ffffffffffffffffffffffffffffffffffffffff1614612e7057612e6f8282613438565b5b5b505050565b612e8083836134b7565b612e8d6000848484612ed1565b612ecc576040517f08c379a0000000000000000000000000000000000000000000000000000000008152600401612ec3906150c5565b60405180910390fd5b505050565b6000612ef28473ffffffffffffffffffffffffffffffffffffffff16613685565b1561304c578373ffffffffffffffffffffffffffffffffffffffff1663150b7a02612f1b612468565b8786866040518563ffffffff1660e01b8152600401612f3d949392919061513a565b6020604051808303816000875af1925050508015612f7957506040513d601f19601f82011682018060405250810190612f76919061519b565b60015b612ffc573d8060008114612fa9576040519150601f19603f3d011682016040523d82523d6000602084013e612fae565b606091505b50600081511415612ff4576040517f08c379a0000000000000000000000000000000000000000000000000000000008152600401612feb906150c5565b60405180910390fd5b805181602001fd5b63150b7a0260e01b7bffffffffffffffffffffffffffffffffffffffffffffffffffffffff1916817bffffffffffffffffffffffffffffffffffffffffffffffffffffffff191614915050613051565b600190505b949350505050565b600080600090507a184f03e93ff9f4daa797ed6e38ed64bf6a1f01000000000000000083106130b7577a184f03e93ff9f4daa797ed6e38ed64bf6a1f01000000000000000083816130ad576130ac6148c7565b5b0492506040810190505b6d04ee2d6d415b85acef810000000083106130f4576d04ee2d6d415b85acef810000000083816130ea576130e96148c7565b5b0492506020810190505b662386f26fc10000831061312357662386f26fc100008381613119576131186148c7565b5b0492506010810190505b6305f5e100831061314c576305f5e1008381613142576131416148c7565b5b0492506008810190505b6127108310613171576127108381613167576131666148c7565b5b0492506004810190505b60648310613194576064838161318a576131896148c7565b5b0492506002810190505b600a83106131a3576001810190505b80915050919050565b505050565b6008805490506009600083815260200190815260200160002081905550600881908060018154018082558091505060019003906000526020600020016000909190919091505550565b600060016132078461119e565b61321191906145ea565b90506000600760008481526020019081526020016000205490508181146132f6576000600660008673ffffffffffffffffffffffffffffffffffffffff1673ffffffffffffffffffffffffffffffffffffffff168152602001908152602001600020600084815260200190815260200160002054905080600660008773ffffffffffffffffffffffffffffffffffffffff1673ffffffffffffffffffffffffffffffffffffffff168152602001908152602001600020600084815260200190815260200160002081905550816007600083815260200190815260200160002081905550505b6007600084815260200190815260200160002060009055600660008573ffffffffffffffffffffffffffffffffffffffff1673ffffffffffffffffffffffffffffffffffffffff16815260200190815260200160002060008381526020019081526020016000206000905550505050565b6000600160088054905061337b91906145ea565b90506000600960008481526020019081526020016000205490506000600883815481106133ab576133aa61458c565b5b9060005260206000200154905080600883815481106133cd576133cc61458c565b5b90600052602060002001819055508160096000838152602001908152602001600020819055506009600085815260200190815260200160002060009055600880548061341c5761341b6151c8565b5b6001900381819060005260206000200160009055905550505050565b60006134438361119e565b905081600660008573ffffffffffffffffffffffffffffffffffffffff1673ffffffffffffffffffffffffffffffffffffffff168152602001908152602001600020600083815260200190815260200160002081905550806007600084815260200190815260200160002081905550505050565b600073ffffffffffffffffffffffffffffffffffffffff168273ffffffffffffffffffffffffffffffffffffffff161415613527576040517f08c379a000000000000000000000000000000000000000000000000000000000815260040161351e90615243565b60405180910390fd5b613530816123fc565b15613570576040517f08c379a0000000000000000000000000000000000000000000000000000000008152600401613567906152af565b60405180910390fd5b61357c60008383612d62565b6001600360008473ffffffffffffffffffffffffffffffffffffffff1673ffffffffffffffffffffffffffffffffffffffff16815260200190815260200160002060008282546135cc9190614edf565b92505081905550816002600083815260200190815260200160002060006101000a81548173ffffffffffffffffffffffffffffffffffffffff021916908373ffffffffffffffffffffffffffffffffffffffff160217905550808273ffffffffffffffffffffffffffffffffffffffff16600073ffffffffffffffffffffffffffffffffffffffff167fddf252ad1be2c89b69c2b068fc378daa952ba7f163c4a11628f55a4df523b3ef60405160405180910390a45050565b6000808273ffffffffffffffffffffffffffffffffffffffff163b119050919050565b6040518060e0016040528060008152602001600073ffffffffffffffffffffffffffffffffffffffff16815260200160008152602001606081526020016060815260200160608152602001600081525090565b828054613707906141ee565b90600052602060002090601f0160209004810192826137295760008555613770565b82601f1061374257805160ff1916838001178555613770565b82800160010185558215613770579182015b8281111561376f578251825591602001919060010190613754565b5b50905061377d9190613781565b5090565b5b8082111561379a576000816000905550600101613782565b5090565b6000604051905090565b600080fd5b600080fd5b60007fffffffff0000000000000000000000000000000000000000000000000000000082169050919050565b6137e7816137b2565b81146137f257600080fd5b50565b600081359050613804816137de565b92915050565b6000602082840312156138205761381f6137a8565b5b600061382e848285016137f5565b91505092915050565b60008115159050919050565b61384c81613837565b82525050565b60006020820190506138676000830184613843565b92915050565b6000819050919050565b6138808161386d565b82525050565b600060208201905061389b6000830184613877565b92915050565b600081519050919050565b600082825260208201905092915050565b60005b838110156138db5780820151818401526020810190506138c0565b838111156138ea576000848401525b50505050565b6000601f19601f8301169050919050565b600061390c826138a1565b61391681856138ac565b93506139268185602086016138bd565b61392f816138f0565b840191505092915050565b600060208201905081810360008301526139548184613901565b905092915050565b6139658161386d565b811461397057600080fd5b50565b6000813590506139828161395c565b92915050565b60006020828403121561399e5761399d6137a8565b5b60006139ac84828501613973565b91505092915050565b600073ffffffffffffffffffffffffffffffffffffffff82169050919050565b60006139e0826139b5565b9050919050565b6139f0816139d5565b82525050565b6000602082019050613a0b60008301846139e7565b92915050565b613a1a816139d5565b8114613a2557600080fd5b50565b600081359050613a3781613a11565b92915050565b60008060408385031215613a5457613a536137a8565b5b6000613a6285828601613a28565b9250506020613a7385828601613973565b9150509250929050565b600080600060608486031215613a9657613a956137a8565b5b6000613aa486828701613a28565b9350506020613ab586828701613a28565b9250506040613ac686828701613973565b9150509250925092565b600081519050919050565b600082825260208201905092915050565b6000819050602082019050919050565b613b058161386d565b82525050565b613b14816139d5565b82525050565b600082825260208201905092915050565b6000613b36826138a1565b613b408185613b1a565b9350613b508185602086016138bd565b613b59816138f0565b840191505092915050565b600060e083016000830151613b7c6000860182613afc565b506020830151613b8f6020860182613b0b565b506040830151613ba26040860182613afc565b5060608301518482036060860152613bba8282613b2b565b91505060808301518482036080860152613bd48282613b2b565b91505060a083015184820360a0860152613bee8282613b2b565b91505060c0830151613c0360c0860182613afc565b508091505092915050565b6000613c1a8383613b64565b905092915050565b6000602082019050919050565b6000613c3a82613ad0565b613c448185613adb565b935083602082028501613c5685613aec565b8060005b85811015613c925784840389528151613c738582613c0e565b9450613c7e83613c22565b925060208a01995050600181019050613c5a565b50829750879550505050505092915050565b60006020820190508181036000830152613cbe8184613c2f565b905092915050565b600060e083016000830151613cde6000860182613afc565b506020830151613cf16020860182613b0b565b506040830151613d046040860182613afc565b5060608301518482036060860152613d1c8282613b2b565b91505060808301518482036080860152613d368282613b2b565b91505060a083015184820360a0860152613d508282613b2b565b91505060c0830151613d6560c0860182613afc565b508091505092915050565b60006020820190508181036000830152613d8a8184613cc6565b905092915050565b600060208284031215613da857613da76137a8565b5b6000613db684828501613a28565b91505092915050565b600080fd5b600080fd5b7f4e487b7100000000000000000000000000000000000000000000000000000000600052604160045260246000fd5b613e01826138f0565b810181811067ffffffffffffffff82111715613e2057613e1f613dc9565b5b80604052505050565b6000613e3361379e565b9050613e3f8282613df8565b919050565b600067ffffffffffffffff821115613e5f57613e5e613dc9565b5b613e68826138f0565b9050602081019050919050565b82818337600083830152505050565b6000613e97613e9284613e44565b613e29565b905082815260208101848484011115613eb357613eb2613dc4565b5b613ebe848285613e75565b509392505050565b600082601f830112613edb57613eda613dbf565b5b8135613eeb848260208601613e84565b91505092915050565b60008060008060808587031215613f0e57613f0d6137a8565b5b600085013567ffffffffffffffff811115613f2c57613f2b6137ad565b5b613f3887828801613ec6565b945050602085013567ffffffffffffffff811115613f5957613f586137ad565b5b613f6587828801613ec6565b935050604085013567ffffffffffffffff811115613f8657613f856137ad565b5b613f9287828801613ec6565b9250506060613fa387828801613973565b91505092959194509250565b613fb881613837565b8114613fc357600080fd5b50565b600081359050613fd581613faf565b92915050565b60008060408385031215613ff257613ff16137a8565b5b600061400085828601613a28565b925050602061401185828601613fc6565b9150509250929050565b60008060408385031215614032576140316137a8565b5b600061404085828601613973565b925050602061405185828601613973565b9150509250929050565b600067ffffffffffffffff82111561407657614075613dc9565b5b61407f826138f0565b9050602081019050919050565b600061409f61409a8461405b565b613e29565b9050828152602081018484840111156140bb576140ba613dc4565b5b6140c6848285613e75565b509392505050565b600082601f8301126140e3576140e2613dbf565b5b81356140f384826020860161408c565b91505092915050565b60008060008060808587031215614116576141156137a8565b5b600061412487828801613a28565b945050602061413587828801613a28565b935050604061414687828801613973565b925050606085013567ffffffffffffffff811115614167576141666137ad565b5b614173878288016140ce565b91505092959194509250565b60008060408385031215614196576141956137a8565b5b60006141a485828601613a28565b92505060206141b585828601613a28565b9150509250929050565b7f4e487b7100000000000000000000000000000000000000000000000000000000600052602260045260246000fd5b6000600282049050600182168061420657607f821691505b6020821081141561421a576142196141bf565b5b50919050565b7f4552433732313a20617070726f76656420717565727920666f72206e6f6e657860008201527f697374656e7420746f6b656e0000000000000000000000000000000000000000602082015250565b600061427c602c836138ac565b915061428782614220565b604082019050919050565b600060208201905081810360008301526142ab8161426f565b9050919050565b7f4552433732313a20617070726f76616c20746f2063757272656e74206f776e6560008201527f7200000000000000000000000000000000000000000000000000000000000000602082015250565b600061430e6021836138ac565b9150614319826142b2565b604082019050919050565b6000602082019050818103600083015261433d81614301565b9050919050565b7f4552433732313a20617070726f76652063616c6c6572206973206e6f74206f7760008201527f6e6572206e6f7220617070726f76656420666f7220616c6c0000000000000000602082015250565b60006143a06038836138ac565b91506143ab82614344565b604082019050919050565b600060208201905081810360008301526143cf81614393565b9050919050565b7f4552433732313a207472616e736665722063616c6c6572206973206e6f74206f60008201527f776e6572206e6f7220617070726f766564000000000000000000000000000000602082015250565b60006144326031836138ac565b915061443d826143d6565b604082019050919050565b6000602082019050818103600083015261446181614425565b9050919050565b7f455243373231456e756d657261626c653a206f776e657220696e646578206f7560008201527f74206f6620626f756e6473000000000000000000000000000000000000000000602082015250565b60006144c4602b836138ac565b91506144cf82614468565b604082019050919050565b600060208201905081810360008301526144f3816144b7565b9050919050565b7f455243373231456e756d657261626c653a20676c6f62616c20696e646578206f60008201527f7574206f6620626f756e64730000000000000000000000000000000000000000602082015250565b6000614556602c836138ac565b9150614561826144fa565b604082019050919050565b6000602082019050818103600083015261458581614549565b9050919050565b7f4e487b7100000000000000000000000000000000000000000000000000000000600052603260045260246000fd5b7f4e487b7100000000000000000000000000000000000000000000000000000000600052601160045260246000fd5b60006145f58261386d565b91506146008361386d565b925082821015614613576146126145bb565b5b828203905092915050565b7f4552433732313a206f776e657220717565727920666f72206e6f6e657869737460008201527f656e7420746f6b656e0000000000000000000000000000000000000000000000602082015250565b600061467a6029836138ac565b91506146858261461e565b604082019050919050565b600060208201905081810360008301526146a98161466d565b9050919050565b7f4552433732313a2062616c616e636520717565727920666f7220746865207a6560008201527f726f206164647265737300000000000000000000000000000000000000000000602082015250565b600061470c602a836138ac565b9150614717826146b0565b604082019050919050565b6000602082019050818103600083015261473b816146ff565b9050919050565b7f457468657220746f6f206c6f7720666f72206d696e74696e6721000000000000600082015250565b6000614778601a836138ac565b915061478382614742565b602082019050919050565b600060208201905081810360008301526147a78161476b565b9050919050565b600081905092915050565b60006147c4826138a1565b6147ce81856147ae565b93506147de8185602086016138bd565b80840191505092915050565b60006147f682846147b9565b915081905092915050565b7f54686973204e465420697320616c7265616479206d696e746564210000000000600082015250565b6000614837601b836138ac565b915061484282614801565b602082019050919050565b600060208201905081810360008301526148668161482a565b9050919050565b60006148788261386d565b91506148838361386d565b9250817fffffffffffffffffffffffffffffffffffffffffffffffffffffffffffffffff04831182151516156148bc576148bb6145bb565b5b828202905092915050565b7f4e487b7100000000000000000000000000000000000000000000000000000000600052601260045260246000fd5b60006149018261386d565b915061490c8361386d565b92508261491c5761491b6148c7565b5b828204905092915050565b60006149328261386d565b91507fffffffffffffffffffffffffffffffffffffffffffffffffffffffffffffffff821415614965576149646145bb565b5b600182019050919050565b60006080820190506149856000830187613877565b6149926020830186613877565b81810360408301526149a48185613901565b90506149b36060830184613877565b95945050505050565b7f457468657220746f6f206c6f7720666f72207075726368617365210000000000600082015250565b60006149f2601b836138ac565b91506149fd826149bc565b602082019050919050565b60006020820190508181036000830152614a21816149e5565b9050919050565b7f4f7065726174696f6e204e6f7420416c6c6f7765642100000000000000000000600082015250565b6000614a5e6016836138ac565b9150614a6982614a28565b602082019050919050565b60006020820190508181036000830152614a8d81614a51565b9050919050565b60008190508160005260206000209050919050565b60008154614ab6816141ee565b614ac081866138ac565b94506001821660008114614adb5760018114614aed57614b20565b60ff1983168652602086019350614b20565b614af685614a94565b60005b83811015614b1857815481890152600182019150602081019050614af9565b808801955050505b50505092915050565b6000608082019050614b3e6000830187613877565b614b4b6020830186613877565b8181036040830152614b5d8185614aa9565b9050614b6c6060830184613877565b95945050505050565b7f457468657220746f6f206c6f7721000000000000000000000000000000000000600082015250565b6000614bab600e836138ac565b9150614bb682614b75565b602082019050919050565b60006020820190508181036000830152614bda81614b9e565b9050919050565b7f4552433732314d657461646174613a2055524920717565727920666f72206e6f60008201527f6e6578697374656e7420746f6b656e0000000000000000000000000000000000602082015250565b6000614c3d602f836138ac565b9150614c4882614be1565b604082019050919050565b60006020820190508181036000830152614c6c81614c30565b9050919050565b6000614c7f82856147b9565b9150614c8b82846147b9565b91508190509392505050565b7f4f776e61626c653a206e6577206f776e657220697320746865207a65726f206160008201527f6464726573730000000000000000000000000000000000000000000000000000602082015250565b6000614cf36026836138ac565b9150614cfe82614c97565b604082019050919050565b60006020820190508181036000830152614d2281614ce6565b9050919050565b7f4552433732313a206f70657261746f7220717565727920666f72206e6f6e657860008201527f697374656e7420746f6b656e0000000000000000000000000000000000000000602082015250565b6000614d85602c836138ac565b9150614d9082614d29565b604082019050919050565b60006020820190508181036000830152614db481614d78565b9050919050565b7f4552433732313a207472616e73666572206f6620746f6b656e2074686174206960008201527f73206e6f74206f776e0000000000000000000000000000000000000000000000602082015250565b6000614e176029836138ac565b9150614e2282614dbb565b604082019050919050565b60006020820190508181036000830152614e4681614e0a565b9050919050565b7f4552433732313a207472616e7366657220746f20746865207a65726f2061646460008201527f7265737300000000000000000000000000000000000000000000000000000000602082015250565b6000614ea96024836138ac565b9150614eb482614e4d565b604082019050919050565b60006020820190508181036000830152614ed881614e9c565b9050919050565b6000614eea8261386d565b9150614ef58361386d565b9250827fffffffffffffffffffffffffffffffffffffffffffffffffffffffffffffffff03821115614f2a57614f296145bb565b5b828201905092915050565b7f4f776e61626c653a2063616c6c6572206973206e6f7420746865206f776e6572600082015250565b6000614f6b6020836138ac565b9150614f7682614f35565b602082019050919050565b60006020820190508181036000830152614f9a81614f5e565b9050919050565b600081905092915050565b50565b6000614fbc600083614fa1565b9150614fc782614fac565b600082019050919050565b6000614fdd82614faf565b9150819050919050565b7f4552433732313a20617070726f766520746f2063616c6c657200000000000000600082015250565b600061501d6019836138ac565b915061502882614fe7565b602082019050919050565b6000602082019050818103600083015261504c81615010565b9050919050565b7f4552433732313a207472616e7366657220746f206e6f6e20455243373231526560008201527f63656976657220696d706c656d656e7465720000000000000000000000000000602082015250565b60006150af6032836138ac565b91506150ba82615053565b604082019050919050565b600060208201905081810360008301526150de816150a2565b9050919050565b600081519050919050565b600082825260208201905092915050565b600061510c826150e5565b61511681856150f0565b93506151268185602086016138bd565b61512f816138f0565b840191505092915050565b600060808201905061514f60008301876139e7565b61515c60208301866139e7565b6151696040830185613877565b818103606083015261517b8184615101565b905095945050505050565b600081519050615195816137de565b92915050565b6000602082840312156151b1576151b06137a8565b5b60006151bf84828501615186565b91505092915050565b7f4e487b7100000000000000000000000000000000000000000000000000000000600052603160045260246000fd5b7f4552433732313a206d696e7420746f20746865207a65726f2061646472657373600082015250565b600061522d6020836138ac565b9150615238826151f7565b602082019050919050565b6000602082019050818103600083015261525c81615220565b9050919050565b7f4552433732313a20746f6b656e20616c7265616479206d696e74656400000000600082015250565b6000615299601c836138ac565b91506152a482615263565b602082019050919050565b600060208201905081810360008301526152c88161528c565b905091905056fea2646970667358221220e67589d5381ebf9bce28964fa27e106423b641ea1bfdb687b66e7a87dc43cf0764736f6c634300080b0033",
  "immutableReferences": {},
  "source": "// SPDX-License-Identifier: MIT\n// The SPDX-License-Identifier specifies the license under which the code is released. In this case, it is the MIT license.\n\npragma solidity >=0.7.0 <0.9.0;\n\nimport \"./ERC721.sol\";\nimport \"./ERC721Enumerable.sol\";\n// These files are present in the contract folder.\nimport \"@openzeppelin/contracts/access/Ownable.sol\";\n\n// Inheritance\ncontract TimelessNFT is ERC721Enumerable, Ownable {\n\n    // Conversion of uint to string\n    using Strings for uint256;\n\n    // Mapping that holds information of every URI that has been minted in this platform\n    mapping(string => uint8) existingURIs;\n\n    // Holds minted NFTs\n    mapping(uint256 => address) public holderOf;\n\n    // NFT artist address\n    address public artist;\n\n    // Royalty fee\n    uint256 public royaltyFee;\n\n    uint256 public supply = 0;\n    uint256 public totalTx = 0;\n\n    // Cost for minting\n    uint256 public cost = 0.01 ether;\n\n    // Sales event, fired when an NFT is minted or transferred from one person to another\n    event Sale(\n        uint256 id,\n        address indexed owner,\n        uint256 cost,\n        string metadataURI,\n        uint256 timestamp\n    );\n\n    // Hold information of each transaction happening\n    struct TransactionStruct {\n        uint256 id;\n        address owner;\n        uint256 cost;\n        string title;\n        string description;\n        string metadataURI;\n        uint256 timestamp;\n    }\n\n    // Array of transactions and minted NFTs\n    TransactionStruct[] transactions;\n    TransactionStruct[] minted;\n\n    // Runs once at the beginning\n    constructor(\n        string memory _name,\n        string memory _symbol,\n        uint256 _royaltyFee,\n        address _artist\n    ) ERC721(_name, _symbol) {\n        royaltyFee = _royaltyFee;\n        artist = _artist;\n    }\n\n    // Pay to mint an NFT\n    function payToMint(\n        string memory title,\n        string memory description,\n        string memory metadataURI,\n        uint256 salesPrice\n    ) external payable {\n        require(msg.value >= cost, \"Ether too low for minting!\");\n        require(existingURIs[metadataURI] == 0, \"This NFT is already minted!\");\n\n        // Calculate royalty amount\n        uint256 royalty = (msg.value * royaltyFee) / 100;\n\n        // Pay royalty to the artist\n        payTo(artist, royalty);\n\n        // Pay minting cost to the contract owner\n        payTo(owner(), (msg.value - royalty));\n\n        supply++;\n\n        // Add the minted NFT to the minted array\n        minted.push(\n            TransactionStruct(\n                supply,\n                msg.sender,\n                salesPrice,\n                title,\n                description,\n                metadataURI,\n                block.timestamp\n            )\n        );\n\n        // Emit the Sale event to notify that an NFT has been minted\n        emit Sale(\n            supply,\n            msg.sender,\n            msg.value,\n            metadataURI,\n            block.timestamp\n        );\n\n        // Mint the NFT and assign it to the sender\n        _safeMint(msg.sender, supply);\n        existingURIs[metadataURI] = 1;\n\n        // Record the address of the new NFT holder\n        holderOf[supply] = msg.sender;\n    }\n\n    // Pay to buy an NFT\n    function payToBuy(uint256 id) external payable {\n        require(msg.value >= minted[id - 1].cost, \"Ether too low for purchase!\");\n        require(msg.sender != minted[id - 1].owner, \"Operation Not Allowed!\");\n\n        // Calculate royalty amount\n        uint256 royalty = (msg.value * royaltyFee) / 100;\n\n        // Pay royalty to the artist\n        payTo(artist, royalty);\n\n        // Pay the purchase cost to the current NFT owner\n        payTo(minted[id - 1].owner, (msg.value - royalty));\n\n        totalTx++;\n\n        // Add the transaction to the transactions array\n        transactions.push(\n            TransactionStruct(\n                totalTx,\n                msg.sender,\n                msg.value,\n                minted[id - 1].title,\n                minted[id - 1].description,\n                minted[id - 1].metadataURI,\n                block.timestamp\n            )\n        );\n\n        // Emit the Sale event to notify that an NFT has been purchased\n        emit Sale(\n            totalTx,\n            msg.sender,\n            msg.value,\n            minted[id - 1].metadataURI,\n            block.timestamp\n        );\n\n        // Change the owner of the NFT\n        minted[id - 1].owner = msg.sender;\n    }\n\n    // Change the price of an NFT\n    function changePrice(uint256 id, uint256 newPrice) external returns (bool) {\n        require(newPrice > 0 ether, \"Ether too low!\");\n        require(msg.sender == minted[id - 1].owner, \"Operation Not Allowed!\");\n\n        minted[id - 1].cost = newPrice;\n        return true;\n    }\n\n    // Pay money to the given address\n    function payTo(address to, uint256 amount) internal {\n        (bool success, ) = payable(to).call{value: amount}(\"\");\n        require(success);\n    }\n\n    // Get all minted NFTs\n    function getAllNFTs() external view returns (TransactionStruct[] memory) {\n        return minted;\n    }\n\n    // Get information about a specific NFT\n    function getNFT(uint256 id) external view returns (TransactionStruct memory) {\n        return minted[id - 1];\n    }\n\n    // Get all transactions\n    function getAllTransactions() external view returns (TransactionStruct[] memory) {\n        return transactions;\n    }\n}\n",
  "sourcePath": "/root/interview-task/NFT-appavengers/NFT-marketplace/src/contracts/TimelessNFT.sol",
  "compiler": {
    "name": "solc",
    "version": "0.8.11+commit.d7f03943.Emscripten.clang"
  },
  "schemaVersion": "3.4.14",
  "updatedAt": "2023-07-15T12:28:48.537Z",
  "devdoc": {
    "kind": "dev",
    "methods": {
      "approve(address,uint256)": {
        "details": "See {IERC721-approve}."
      },
      "balanceOf(address)": {
        "details": "See {IERC721-balanceOf}."
      },
      "getApproved(uint256)": {
        "details": "See {IERC721-getApproved}."
      },
      "isApprovedForAll(address,address)": {
        "details": "See {IERC721-isApprovedForAll}."
      },
      "name()": {
        "details": "See {IERC721Metadata-name}."
      },
      "owner()": {
        "details": "Returns the address of the current owner."
      },
      "ownerOf(uint256)": {
        "details": "See {IERC721-ownerOf}."
      },
      "renounceOwnership()": {
        "details": "Leaves the contract without owner. It will not be possible to call `onlyOwner` functions. Can only be called by the current owner. NOTE: Renouncing ownership will leave the contract without an owner, thereby disabling any functionality that is only available to the owner."
      },
      "safeTransferFrom(address,address,uint256)": {
        "details": "See {IERC721-safeTransferFrom}."
      },
      "safeTransferFrom(address,address,uint256,bytes)": {
        "details": "See {IERC721-safeTransferFrom}."
      },
      "setApprovalForAll(address,bool)": {
        "details": "See {IERC721-setApprovalForAll}."
      },
      "supportsInterface(bytes4)": {
        "details": "See {IERC165-supportsInterface}."
      },
      "symbol()": {
        "details": "See {IERC721Metadata-symbol}."
      },
      "tokenByIndex(uint256)": {
        "details": "See {IERC721Enumerable-tokenByIndex}."
      },
      "tokenOfOwnerByIndex(address,uint256)": {
        "details": "See {IERC721Enumerable-tokenOfOwnerByIndex}."
      },
      "tokenURI(uint256)": {
        "details": "See {IERC721Metadata-tokenURI}."
      },
      "totalSupply()": {
        "details": "See {IERC721Enumerable-totalSupply}."
      },
      "transferFrom(address,address,uint256)": {
        "details": "See {IERC721-transferFrom}."
      },
      "transferOwnership(address)": {
        "details": "Transfers ownership of the contract to a new account (`newOwner`). Can only be called by the current owner."
      }
    },
    "version": 1
  },
  "userdoc": {
    "kind": "user",
    "methods": {},
    "version": 1
  }
}